{
  "_format": "hh-sol-artifact-1",
  "contractName": "MedicalRecordAccess",
  "sourceName": "contracts/MedicalRecordAccess.sol",
  "abi": [
    {
      "anonymous": false,
      "inputs": [
        {
          "indexed": true,
          "internalType": "address",
          "name": "doctor",
          "type": "address"
        }
      ],
      "name": "DoctorRegistered",
      "type": "event"
    },
    {
      "anonymous": false,
      "inputs": [
        {
          "indexed": true,
          "internalType": "address",
          "name": "patient",
          "type": "address"
        }
      ],
      "name": "PatientRegistered",
      "type": "event"
    },
    {
      "inputs": [
        {
          "internalType": "address",
          "name": "",
          "type": "address"
        },
        {
          "internalType": "address",
          "name": "",
          "type": "address"
        }
      ],
      "name": "accessPermissions",
      "outputs": [
        {
          "internalType": "bool",
          "name": "",
          "type": "bool"
        }
      ],
      "stateMutability": "view",
      "type": "function"
    },
    {
      "inputs": [
        {
          "internalType": "address",
          "name": "patient",
          "type": "address"
        },
        {
          "internalType": "string",
          "name": "diagnosisDetails",
          "type": "string"
        },
        {
          "internalType": "string",
          "name": "temperature",
          "type": "string"
        },
        {
          "internalType": "string",
          "name": "weight",
          "type": "string"
        },
        {
          "internalType": "string",
          "name": "bloodPressure",
          "type": "string"
        },
        {
          "internalType": "string",
          "name": "treatment",
          "type": "string"
        }
      ],
      "name": "addDiagnosis",
      "outputs": [],
      "stateMutability": "nonpayable",
      "type": "function"
    },
    {
      "inputs": [
        {
          "internalType": "address",
          "name": "",
          "type": "address"
        },
        {
          "internalType": "uint256",
          "name": "",
          "type": "uint256"
        }
      ],
      "name": "diagnoses",
      "outputs": [
        {
          "internalType": "address",
          "name": "doctor",
          "type": "address"
        },
        {
          "internalType": "string",
          "name": "doctorName",
          "type": "string"
        },
        {
          "internalType": "string",
          "name": "diagnosisDetails",
          "type": "string"
        },
        {
          "internalType": "string",
          "name": "temperature",
          "type": "string"
        },
        {
          "internalType": "string",
          "name": "weight",
          "type": "string"
        },
        {
          "internalType": "string",
          "name": "bloodPressure",
          "type": "string"
        },
        {
          "internalType": "string",
          "name": "treatment",
          "type": "string"
        },
        {
          "internalType": "uint256",
          "name": "timestamp",
          "type": "uint256"
        }
      ],
      "stateMutability": "view",
      "type": "function"
    },
    {
      "inputs": [
        {
          "internalType": "address",
          "name": "",
          "type": "address"
        }
      ],
      "name": "doctors",
      "outputs": [
        {
          "internalType": "string",
          "name": "name",
          "type": "string"
        },
        {
          "internalType": "string",
          "name": "specialty",
          "type": "string"
        },
        {
          "internalType": "bool",
          "name": "exists",
          "type": "bool"
        }
      ],
      "stateMutability": "view",
      "type": "function"
    },
    {
      "inputs": [
        {
          "internalType": "address",
          "name": "patient",
          "type": "address"
        }
      ],
      "name": "getDiagnoses",
      "outputs": [
        {
          "components": [
            {
              "internalType": "address",
              "name": "doctor",
              "type": "address"
            },
            {
              "internalType": "string",
              "name": "doctorName",
              "type": "string"
            },
            {
              "internalType": "string",
              "name": "diagnosisDetails",
              "type": "string"
            },
            {
              "internalType": "string",
              "name": "temperature",
              "type": "string"
            },
            {
              "internalType": "string",
              "name": "weight",
              "type": "string"
            },
            {
              "internalType": "string",
              "name": "bloodPressure",
              "type": "string"
            },
            {
              "internalType": "string",
              "name": "treatment",
              "type": "string"
            },
            {
              "internalType": "uint256",
              "name": "timestamp",
              "type": "uint256"
            }
          ],
          "internalType": "struct MedicalRecordAccess.Diagnosis[]",
          "name": "",
          "type": "tuple[]"
        }
      ],
      "stateMutability": "view",
      "type": "function"
    },
    {
      "inputs": [
        {
          "internalType": "address",
          "name": "doctor",
          "type": "address"
        }
      ],
      "name": "getDoctorProfile",
      "outputs": [
        {
          "components": [
            {
              "internalType": "string",
              "name": "name",
              "type": "string"
            },
            {
              "internalType": "string",
              "name": "specialty",
              "type": "string"
            },
            {
              "internalType": "bool",
              "name": "exists",
              "type": "bool"
            }
          ],
          "internalType": "struct MedicalRecordAccess.DoctorProfile",
          "name": "",
          "type": "tuple"
        }
      ],
      "stateMutability": "view",
      "type": "function"
    },
    {
      "inputs": [
        {
          "internalType": "address",
          "name": "patient",
          "type": "address"
        }
      ],
      "name": "getGrantedDoctors",
      "outputs": [
        {
          "internalType": "address[]",
          "name": "",
          "type": "address[]"
        }
      ],
      "stateMutability": "view",
      "type": "function"
    },
    {
      "inputs": [
        {
          "internalType": "address",
          "name": "patient",
          "type": "address"
        }
      ],
      "name": "getPatientProfile",
      "outputs": [
        {
          "components": [
            {
              "internalType": "string",
              "name": "name",
              "type": "string"
            },
            {
              "internalType": "string",
              "name": "gender",
              "type": "string"
            },
            {
              "internalType": "uint256",
              "name": "age",
              "type": "uint256"
            },
            {
              "internalType": "bool",
              "name": "exists",
              "type": "bool"
            }
          ],
          "internalType": "struct MedicalRecordAccess.PatientProfile",
          "name": "",
          "type": "tuple"
        }
      ],
      "stateMutability": "view",
      "type": "function"
    },
    {
      "inputs": [
        {
          "internalType": "address",
          "name": "user",
          "type": "address"
        }
      ],
      "name": "getUserRole",
      "outputs": [
        {
          "internalType": "enum MedicalRecordAccess.Role",
          "name": "",
          "type": "uint8"
        }
      ],
      "stateMutability": "view",
      "type": "function"
    },
    {
      "inputs": [
        {
          "internalType": "address",
          "name": "doctor",
          "type": "address"
        }
      ],
      "name": "grantAccess",
      "outputs": [],
      "stateMutability": "nonpayable",
      "type": "function"
    },
    {
      "inputs": [
        {
          "internalType": "address",
          "name": "doctor",
          "type": "address"
        },
        {
          "internalType": "address",
          "name": "patient",
          "type": "address"
        }
      ],
      "name": "hasAccess",
      "outputs": [
        {
          "internalType": "bool",
          "name": "",
          "type": "bool"
        }
      ],
      "stateMutability": "view",
      "type": "function"
    },
    {
      "inputs": [
        {
          "internalType": "address",
          "name": "",
          "type": "address"
        },
        {
          "internalType": "uint256",
          "name": "",
          "type": "uint256"
        }
      ],
      "name": "patientDoctors",
      "outputs": [
        {
          "internalType": "address",
          "name": "",
          "type": "address"
        }
      ],
      "stateMutability": "view",
      "type": "function"
    },
    {
      "inputs": [
        {
          "internalType": "address",
          "name": "",
          "type": "address"
        }
      ],
      "name": "patients",
      "outputs": [
        {
          "internalType": "string",
          "name": "name",
          "type": "string"
        },
        {
          "internalType": "string",
          "name": "gender",
          "type": "string"
        },
        {
          "internalType": "uint256",
          "name": "age",
          "type": "uint256"
        },
        {
          "internalType": "bool",
          "name": "exists",
          "type": "bool"
        }
      ],
      "stateMutability": "view",
      "type": "function"
    },
    {
      "inputs": [
        {
          "internalType": "string",
          "name": "name",
          "type": "string"
        },
        {
          "internalType": "string",
          "name": "specialty",
          "type": "string"
        }
      ],
      "name": "registerAsDoctor",
      "outputs": [],
      "stateMutability": "nonpayable",
      "type": "function"
    },
    {
      "inputs": [
        {
          "internalType": "string",
          "name": "name",
          "type": "string"
        },
        {
          "internalType": "string",
          "name": "gender",
          "type": "string"
        },
        {
          "internalType": "uint256",
          "name": "age",
          "type": "uint256"
        }
      ],
      "name": "registerAsPatient",
      "outputs": [],
      "stateMutability": "nonpayable",
      "type": "function"
    },
    {
      "inputs": [
        {
          "internalType": "address",
          "name": "doctor",
          "type": "address"
        }
      ],
      "name": "revokeAccess",
      "outputs": [],
      "stateMutability": "nonpayable",
      "type": "function"
    },
    {
      "inputs": [
        {
          "internalType": "address",
          "name": "",
          "type": "address"
        }
      ],
      "name": "roles",
      "outputs": [
        {
          "internalType": "enum MedicalRecordAccess.Role",
          "name": "",
          "type": "uint8"
        }
      ],
      "stateMutability": "view",
      "type": "function"
    }
  ],
  "bytecode": "0x6080604052348015600f57600080fd5b506142aa8061001f6000396000f3fe608060405234801561001057600080fd5b506004361061010b5760003560e01c806385e68531116100a2578063993746421161007157806399374642146102f6578063a9583c2214610326578063b092624c14610358578063c97c829d14610388578063dafe614e146103b85761010b565b806385e6853114610286578063873f0581146102a2578063875c7e4e146102be578063903333b9146102da5761010b565b8063461a2082116100de578063461a2082146101bf5780635cbcd8eb146101ef57806364b3b5251461021f5780637736bfbf1461024f5761010b565b80630869cfbc146101105780630ae5e739146101435780631709ef071461015f578063278208511461018f575b600080fd5b61012a60048036038101906101259190612ee1565b6103e8565b60405161013a9493929190612fd2565b60405180910390f35b61015d60048036038101906101589190612ee1565b610535565b005b61017960048036038101906101749190613025565b610979565b6040516101869190613065565b60405180910390f35b6101a960048036038101906101a49190612ee1565b610a0d565b6040516101b691906130f7565b60405180910390f35b6101d960048036038101906101d49190612ee1565b610a62565b6040516101e691906131e4565b60405180910390f35b61020960048036038101906102049190612ee1565b610c93565b604051610216919061325d565b60405180910390f35b61023960048036038101906102349190613025565b610eba565b6040516102469190613065565b60405180910390f35b610269600480360381019061026491906132ab565b610ee9565b60405161027d9897969594939291906132fa565b60405180910390f35b6102a0600480360381019061029b9190612ee1565b61129e565b005b6102bc60048036038101906102b79190613407565b611477565b005b6102d860048036038101906102d39190613538565b611c0a565b005b6102f460048036038101906102ef91906135b9565b611f30565b005b610310600480360381019061030b9190612ee1565b612267565b60405161031d91906130f7565b60405180910390f35b610340600480360381019061033b9190612ee1565b612287565b60405161034f9392919061364e565b60405180910390f35b610372600480360381019061036d9190612ee1565b6123ce565b60405161037f9190613751565b60405180910390f35b6103a2600480360381019061039d9190612ee1565b6126fd565b6040516103af9190613908565b60405180910390f35b6103d260048036038101906103cd91906132ab565b612cf6565b6040516103df919061392a565b60405180910390f35b600160205280600052604060002060009150905080600001805461040b90613974565b80601f016020809104026020016040519081016040528092919081815260200182805461043790613974565b80156104845780601f1061045957610100808354040283529160200191610484565b820191906000526020600020905b81548152906001019060200180831161046757829003601f168201915b50505050509080600101805461049990613974565b80601f01602080910402602001604051908101604052809291908181526020018280546104c590613974565b80156105125780601f106104e757610100808354040283529160200191610512565b820191906000526020600020905b8154815290600101906020018083116104f557829003601f168201915b5050505050908060020154908060030160009054906101000a900460ff16905084565b6001600281111561054957610548613080565b5b6000803373ffffffffffffffffffffffffffffffffffffffff1673ffffffffffffffffffffffffffffffffffffffff16815260200190815260200160002060009054906101000a900460ff1660028111156105a7576105a6613080565b5b146105e7576040517f08c379a00000000000000000000000000000000000000000000000000000000081526004016105de906139f1565b60405180910390fd5b6002808111156105fa576105f9613080565b5b6000808373ffffffffffffffffffffffffffffffffffffffff1673ffffffffffffffffffffffffffffffffffffffff16815260200190815260200160002060009054906101000a900460ff16600281111561065857610657613080565b5b14610698576040517f08c379a000000000000000000000000000000000000000000000000000000000815260040161068f90613a5d565b60405180910390fd5b600260008273ffffffffffffffffffffffffffffffffffffffff1673ffffffffffffffffffffffffffffffffffffffff16815260200190815260200160002060020160009054906101000a900460ff16610727576040517f08c379a000000000000000000000000000000000000000000000000000000000815260040161071e90613ac9565b60405180910390fd5b6001600360003373ffffffffffffffffffffffffffffffffffffffff1673ffffffffffffffffffffffffffffffffffffffff16815260200190815260200160002060008373ffffffffffffffffffffffffffffffffffffffff1673ffffffffffffffffffffffffffffffffffffffff16815260200190815260200160002060006101000a81548160ff0219169083151502179055506000805b600560003373ffffffffffffffffffffffffffffffffffffffff1673ffffffffffffffffffffffffffffffffffffffff168152602001908152602001600020805490508110156108ce578273ffffffffffffffffffffffffffffffffffffffff16600560003373ffffffffffffffffffffffffffffffffffffffff1673ffffffffffffffffffffffffffffffffffffffff168152602001908152602001600020828154811061087257610871613ae9565b5b9060005260206000200160009054906101000a900473ffffffffffffffffffffffffffffffffffffffff1673ffffffffffffffffffffffffffffffffffffffff16036108c157600191506108ce565b80806001019150506107c0565b508061097557600560003373ffffffffffffffffffffffffffffffffffffffff1673ffffffffffffffffffffffffffffffffffffffff168152602001908152602001600020829080600181540180825580915050600190039060005260206000200160009091909190916101000a81548173ffffffffffffffffffffffffffffffffffffffff021916908373ffffffffffffffffffffffffffffffffffffffff1602179055505b5050565b6000600360008373ffffffffffffffffffffffffffffffffffffffff1673ffffffffffffffffffffffffffffffffffffffff16815260200190815260200160002060008473ffffffffffffffffffffffffffffffffffffffff1673ffffffffffffffffffffffffffffffffffffffff16815260200190815260200160002060009054906101000a900460ff16905092915050565b60008060008373ffffffffffffffffffffffffffffffffffffffff1673ffffffffffffffffffffffffffffffffffffffff16815260200190815260200160002060009054906101000a900460ff169050919050565b610a6a612e2c565b600160008373ffffffffffffffffffffffffffffffffffffffff1673ffffffffffffffffffffffffffffffffffffffff16815260200190815260200160002060030160009054906101000a900460ff16610af9576040517f08c379a0000000000000000000000000000000000000000000000000000000008152600401610af090613b64565b60405180910390fd5b600160008373ffffffffffffffffffffffffffffffffffffffff1673ffffffffffffffffffffffffffffffffffffffff168152602001908152602001600020604051806080016040529081600082018054610b5390613974565b80601f0160208091040260200160405190810160405280929190818152602001828054610b7f90613974565b8015610bcc5780601f10610ba157610100808354040283529160200191610bcc565b820191906000526020600020905b815481529060010190602001808311610baf57829003601f168201915b50505050508152602001600182018054610be590613974565b80601f0160208091040260200160405190810160405280929190818152602001828054610c1190613974565b8015610c5e5780601f10610c3357610100808354040283529160200191610c5e565b820191906000526020600020905b815481529060010190602001808311610c4157829003601f168201915b50505050508152602001600282015481526020016003820160009054906101000a900460ff1615151515815250509050919050565b610c9b612e56565b600260008373ffffffffffffffffffffffffffffffffffffffff1673ffffffffffffffffffffffffffffffffffffffff16815260200190815260200160002060020160009054906101000a900460ff16610d2a576040517f08c379a0000000000000000000000000000000000000000000000000000000008152600401610d2190613ac9565b60405180910390fd5b600260008373ffffffffffffffffffffffffffffffffffffffff1673ffffffffffffffffffffffffffffffffffffffff168152602001908152602001600020604051806060016040529081600082018054610d8490613974565b80601f0160208091040260200160405190810160405280929190818152602001828054610db090613974565b8015610dfd5780601f10610dd257610100808354040283529160200191610dfd565b820191906000526020600020905b815481529060010190602001808311610de057829003601f168201915b50505050508152602001600182018054610e1690613974565b80601f0160208091040260200160405190810160405280929190818152602001828054610e4290613974565b8015610e8f5780601f10610e6457610100808354040283529160200191610e8f565b820191906000526020600020905b815481529060010190602001808311610e7257829003601f168201915b505050505081526020016002820160009054906101000a900460ff1615151515815250509050919050565b60036020528160005260406000206020528060005260406000206000915091509054906101000a900460ff1681565b60046020528160005260406000208181548110610f0557600080fd5b9060005260206000209060080201600091509150508060000160009054906101000a900473ffffffffffffffffffffffffffffffffffffffff1690806001018054610f4f90613974565b80601f0160208091040260200160405190810160405280929190818152602001828054610f7b90613974565b8015610fc85780601f10610f9d57610100808354040283529160200191610fc8565b820191906000526020600020905b815481529060010190602001808311610fab57829003601f168201915b505050505090806002018054610fdd90613974565b80601f016020809104026020016040519081016040528092919081815260200182805461100990613974565b80156110565780601f1061102b57610100808354040283529160200191611056565b820191906000526020600020905b81548152906001019060200180831161103957829003601f168201915b50505050509080600301805461106b90613974565b80601f016020809104026020016040519081016040528092919081815260200182805461109790613974565b80156110e45780601f106110b9576101008083540402835291602001916110e4565b820191906000526020600020905b8154815290600101906020018083116110c757829003601f168201915b5050505050908060040180546110f990613974565b80601f016020809104026020016040519081016040528092919081815260200182805461112590613974565b80156111725780601f1061114757610100808354040283529160200191611172565b820191906000526020600020905b81548152906001019060200180831161115557829003601f168201915b50505050509080600501805461118790613974565b80601f01602080910402602001604051908101604052809291908181526020018280546111b390613974565b80156112005780601f106111d557610100808354040283529160200191611200565b820191906000526020600020905b8154815290600101906020018083116111e357829003601f168201915b50505050509080600601805461121590613974565b80601f016020809104026020016040519081016040528092919081815260200182805461124190613974565b801561128e5780601f106112635761010080835404028352916020019161128e565b820191906000526020600020905b81548152906001019060200180831161127157829003601f168201915b5050505050908060070154905088565b600160028111156112b2576112b1613080565b5b6000803373ffffffffffffffffffffffffffffffffffffffff1673ffffffffffffffffffffffffffffffffffffffff16815260200190815260200160002060009054906101000a900460ff1660028111156113105761130f613080565b5b14611350576040517f08c379a000000000000000000000000000000000000000000000000000000000815260040161134790613bd0565b60405180910390fd5b600260008273ffffffffffffffffffffffffffffffffffffffff1673ffffffffffffffffffffffffffffffffffffffff16815260200190815260200160002060020160009054906101000a900460ff166113df576040517f08c379a00000000000000000000000000000000000000000000000000000000081526004016113d690613ac9565b60405180910390fd5b6000600360003373ffffffffffffffffffffffffffffffffffffffff1673ffffffffffffffffffffffffffffffffffffffff16815260200190815260200160002060008373ffffffffffffffffffffffffffffffffffffffff1673ffffffffffffffffffffffffffffffffffffffff16815260200190815260200160002060006101000a81548160ff02191690831515021790555050565b60028081111561148a57611489613080565b5b6000803373ffffffffffffffffffffffffffffffffffffffff1673ffffffffffffffffffffffffffffffffffffffff16815260200190815260200160002060009054906101000a900460ff1660028111156114e8576114e7613080565b5b14611528576040517f08c379a000000000000000000000000000000000000000000000000000000000815260040161151f90613c3c565b60405180910390fd5b600260003373ffffffffffffffffffffffffffffffffffffffff1673ffffffffffffffffffffffffffffffffffffffff16815260200190815260200160002060020160009054906101000a900460ff166115b7576040517f08c379a00000000000000000000000000000000000000000000000000000000081526004016115ae90613ac9565b60405180910390fd5b600160008c73ffffffffffffffffffffffffffffffffffffffff1673ffffffffffffffffffffffffffffffffffffffff16815260200190815260200160002060030160009054906101000a900460ff16611646576040517f08c379a000000000000000000000000000000000000000000000000000000000815260040161163d90613b64565b60405180910390fd5b600360008c73ffffffffffffffffffffffffffffffffffffffff1673ffffffffffffffffffffffffffffffffffffffff16815260200190815260200160002060003373ffffffffffffffffffffffffffffffffffffffff1673ffffffffffffffffffffffffffffffffffffffff16815260200190815260200160002060009054906101000a900460ff1661170f576040517f08c379a000000000000000000000000000000000000000000000000000000000815260040161170690613ca8565b60405180910390fd5b60008a8a905011611755576040517f08c379a000000000000000000000000000000000000000000000000000000000815260040161174c90613d14565b60405180910390fd5b6000828290501161179b576040517f08c379a000000000000000000000000000000000000000000000000000000000815260040161179290613d80565b60405180910390fd5b60006040518061010001604052803373ffffffffffffffffffffffffffffffffffffffff168152602001600260003373ffffffffffffffffffffffffffffffffffffffff1673ffffffffffffffffffffffffffffffffffffffff168152602001908152602001600020600001805461181290613974565b80601f016020809104026020016040519081016040528092919081815260200182805461183e90613974565b801561188b5780601f106118605761010080835404028352916020019161188b565b820191906000526020600020905b81548152906001019060200180831161186e57829003601f168201915b505050505081526020018c8c8080601f016020809104026020016040519081016040528093929190818152602001838380828437600081840152601f19601f8201169050808301925050505050505081526020018a8a8080601f016020809104026020016040519081016040528093929190818152602001838380828437600081840152601f19601f82011690508083019250505050505050815260200188888080601f016020809104026020016040519081016040528093929190818152602001838380828437600081840152601f19601f82011690508083019250505050505050815260200186868080601f016020809104026020016040519081016040528093929190818152602001838380828437600081840152601f19601f82011690508083019250505050505050815260200184848080601f016020809104026020016040519081016040528093929190818152602001838380828437600081840152601f19601f820116905080830192505050505050508152602001428152509050600460008d73ffffffffffffffffffffffffffffffffffffffff1673ffffffffffffffffffffffffffffffffffffffff16815260200190815260200160002081908060018154018082558091505060019003906000526020600020906008020160009091909190915060008201518160000160006101000a81548173ffffffffffffffffffffffffffffffffffffffff021916908373ffffffffffffffffffffffffffffffffffffffff1602179055506020820151816001019081611ad29190613f7b565b506040820151816002019081611ae89190613f7b565b506060820151816003019081611afe9190613f7b565b506080820151816004019081611b149190613f7b565b5060a0820151816005019081611b2a9190613f7b565b5060c0820151816006019081611b409190613f7b565b5060e082015181600701555050611b578c33612d44565b611bfc57600560008d73ffffffffffffffffffffffffffffffffffffffff1673ffffffffffffffffffffffffffffffffffffffff168152602001908152602001600020339080600181540180825580915050600190039060005260206000200160009091909190916101000a81548173ffffffffffffffffffffffffffffffffffffffff021916908373ffffffffffffffffffffffffffffffffffffffff1602179055505b505050505050505050505050565b60006002811115611c1e57611c1d613080565b5b6000803373ffffffffffffffffffffffffffffffffffffffff1673ffffffffffffffffffffffffffffffffffffffff16815260200190815260200160002060009054906101000a900460ff166002811115611c7c57611c7b613080565b5b14611cbc576040517f08c379a0000000000000000000000000000000000000000000000000000000008152600401611cb390614099565b60405180910390fd5b600260003373ffffffffffffffffffffffffffffffffffffffff1673ffffffffffffffffffffffffffffffffffffffff16815260200190815260200160002060020160009054906101000a900460ff1615611d4c576040517f08c379a0000000000000000000000000000000000000000000000000000000008152600401611d4390614105565b60405180910390fd5b60026000803373ffffffffffffffffffffffffffffffffffffffff1673ffffffffffffffffffffffffffffffffffffffff16815260200190815260200160002060006101000a81548160ff02191690836002811115611dae57611dad613080565b5b0217905550604051806060016040528085858080601f016020809104026020016040519081016040528093929190818152602001838380828437600081840152601f19601f82011690508083019250505050505050815260200183838080601f016020809104026020016040519081016040528093929190818152602001838380828437600081840152601f19601f82011690508083019250505050505050815260200160011515815250600260003373ffffffffffffffffffffffffffffffffffffffff1673ffffffffffffffffffffffffffffffffffffffff1681526020019081526020016000206000820151816000019081611ead9190613f7b565b506020820151816001019081611ec39190613f7b565b5060408201518160020160006101000a81548160ff0219169083151502179055509050503373ffffffffffffffffffffffffffffffffffffffff167f2dc8105a7545248d0e354c4c6b02fb583071cc719fb4bef1ca74d72d475570bc60405160405180910390a250505050565b60006002811115611f4457611f43613080565b5b6000803373ffffffffffffffffffffffffffffffffffffffff1673ffffffffffffffffffffffffffffffffffffffff16815260200190815260200160002060009054906101000a900460ff166002811115611fa257611fa1613080565b5b14611fe2576040517f08c379a0000000000000000000000000000000000000000000000000000000008152600401611fd990614099565b60405180910390fd5b600160003373ffffffffffffffffffffffffffffffffffffffff1673ffffffffffffffffffffffffffffffffffffffff16815260200190815260200160002060030160009054906101000a900460ff1615612072576040517f08c379a000000000000000000000000000000000000000000000000000000000815260040161206990614171565b60405180910390fd5b60016000803373ffffffffffffffffffffffffffffffffffffffff1673ffffffffffffffffffffffffffffffffffffffff16815260200190815260200160002060006101000a81548160ff021916908360028111156120d4576120d3613080565b5b0217905550604051806080016040528086868080601f016020809104026020016040519081016040528093929190818152602001838380828437600081840152601f19601f82011690508083019250505050505050815260200184848080601f016020809104026020016040519081016040528093929190818152602001838380828437600081840152601f19601f82011690508083019250505050505050815260200182815260200160011515815250600160003373ffffffffffffffffffffffffffffffffffffffff1673ffffffffffffffffffffffffffffffffffffffff16815260200190815260200160002060008201518160000190816121d99190613f7b565b5060208201518160010190816121ef9190613f7b565b506040820151816002015560608201518160030160006101000a81548160ff0219169083151502179055509050503373ffffffffffffffffffffffffffffffffffffffff167fc9fa2003fca4ce0dfc8cb0deae32266b715536df6685365b05b5be96ede8e49c60405160405180910390a25050505050565b60006020528060005260406000206000915054906101000a900460ff1681565b60026020528060005260406000206000915090508060000180546122aa90613974565b80601f01602080910402602001604051908101604052809291908181526020018280546122d690613974565b80156123235780601f106122f857610100808354040283529160200191612323565b820191906000526020600020905b81548152906001019060200180831161230657829003601f168201915b50505050509080600101805461233890613974565b80601f016020809104026020016040519081016040528092919081815260200182805461236490613974565b80156123b15780601f10612386576101008083540402835291602001916123b1565b820191906000526020600020905b81548152906001019060200180831161239457829003601f168201915b5050505050908060020160009054906101000a900460ff16905083565b60606000600560008473ffffffffffffffffffffffffffffffffffffffff1673ffffffffffffffffffffffffffffffffffffffff16815260200190815260200160002080548060200260200160405190810160405280929190818152602001828054801561249157602002820191906000526020600020905b8160009054906101000a900473ffffffffffffffffffffffffffffffffffffffff1673ffffffffffffffffffffffffffffffffffffffff1681526020019060010190808311612447575b505050505090506000805b825181101561256a57600360008673ffffffffffffffffffffffffffffffffffffffff1673ffffffffffffffffffffffffffffffffffffffff16815260200190815260200160002060008483815181106124f9576124f8613ae9565b5b602002602001015173ffffffffffffffffffffffffffffffffffffffff1673ffffffffffffffffffffffffffffffffffffffff16815260200190815260200160002060009054906101000a900460ff161561255d578180612559906141c0565b9250505b808060010191505061249c565b5060008167ffffffffffffffff81111561258757612586613da0565b5b6040519080825280602002602001820160405280156125b55781602001602082028036833780820191505090505b5090506000805b84518110156126f057600360008873ffffffffffffffffffffffffffffffffffffffff1673ffffffffffffffffffffffffffffffffffffffff168152602001908152602001600020600086838151811061261957612618613ae9565b5b602002602001015173ffffffffffffffffffffffffffffffffffffffff1673ffffffffffffffffffffffffffffffffffffffff16815260200190815260200160002060009054906101000a900460ff16156126e35784818151811061268157612680613ae9565b5b6020026020010151838380612695906141c0565b9450815181106126a8576126a7613ae9565b5b602002602001019073ffffffffffffffffffffffffffffffffffffffff16908173ffffffffffffffffffffffffffffffffffffffff16815250505b80806001019150506125bc565b5081945050505050919050565b6060600160008373ffffffffffffffffffffffffffffffffffffffff1673ffffffffffffffffffffffffffffffffffffffff16815260200190815260200160002060030160009054906101000a900460ff1661278e576040517f08c379a000000000000000000000000000000000000000000000000000000000815260040161278590613b64565b60405180910390fd5b8173ffffffffffffffffffffffffffffffffffffffff163373ffffffffffffffffffffffffffffffffffffffff16148061284e5750600360008373ffffffffffffffffffffffffffffffffffffffff1673ffffffffffffffffffffffffffffffffffffffff16815260200190815260200160002060003373ffffffffffffffffffffffffffffffffffffffff1673ffffffffffffffffffffffffffffffffffffffff16815260200190815260200160002060009054906101000a900460ff165b61288d576040517f08c379a000000000000000000000000000000000000000000000000000000000815260040161288490614254565b60405180910390fd5b600460008373ffffffffffffffffffffffffffffffffffffffff1673ffffffffffffffffffffffffffffffffffffffff168152602001908152602001600020805480602002602001604051908101604052809291908181526020016000905b82821015612ceb5783829060005260206000209060080201604051806101000160405290816000820160009054906101000a900473ffffffffffffffffffffffffffffffffffffffff1673ffffffffffffffffffffffffffffffffffffffff1673ffffffffffffffffffffffffffffffffffffffff16815260200160018201805461297690613974565b80601f01602080910402602001604051908101604052809291908181526020018280546129a290613974565b80156129ef5780601f106129c4576101008083540402835291602001916129ef565b820191906000526020600020905b8154815290600101906020018083116129d257829003601f168201915b50505050508152602001600282018054612a0890613974565b80601f0160208091040260200160405190810160405280929190818152602001828054612a3490613974565b8015612a815780601f10612a5657610100808354040283529160200191612a81565b820191906000526020600020905b815481529060010190602001808311612a6457829003601f168201915b50505050508152602001600382018054612a9a90613974565b80601f0160208091040260200160405190810160405280929190818152602001828054612ac690613974565b8015612b135780601f10612ae857610100808354040283529160200191612b13565b820191906000526020600020905b815481529060010190602001808311612af657829003601f168201915b50505050508152602001600482018054612b2c90613974565b80601f0160208091040260200160405190810160405280929190818152602001828054612b5890613974565b8015612ba55780601f10612b7a57610100808354040283529160200191612ba5565b820191906000526020600020905b815481529060010190602001808311612b8857829003601f168201915b50505050508152602001600582018054612bbe90613974565b80601f0160208091040260200160405190810160405280929190818152602001828054612bea90613974565b8015612c375780601f10612c0c57610100808354040283529160200191612c37565b820191906000526020600020905b815481529060010190602001808311612c1a57829003601f168201915b50505050508152602001600682018054612c5090613974565b80601f0160208091040260200160405190810160405280929190818152602001828054612c7c90613974565b8015612cc95780601f10612c9e57610100808354040283529160200191612cc9565b820191906000526020600020905b815481529060010190602001808311612cac57829003601f168201915b50505050508152602001600782015481525050815260200190600101906128ec565b505050509050919050565b60056020528160005260406000208181548110612d1257600080fd5b906000526020600020016000915091509054906101000a900473ffffffffffffffffffffffffffffffffffffffff1681565b600080600560008573ffffffffffffffffffffffffffffffffffffffff1673ffffffffffffffffffffffffffffffffffffffff168152602001908152602001600020905060005b8180549050811015612e1f578373ffffffffffffffffffffffffffffffffffffffff16828281548110612dc157612dc0613ae9565b5b9060005260206000200160009054906101000a900473ffffffffffffffffffffffffffffffffffffffff1673ffffffffffffffffffffffffffffffffffffffff1603612e1257600192505050612e26565b8080600101915050612d8b565b5060009150505b92915050565b60405180608001604052806060815260200160608152602001600081526020016000151581525090565b604051806060016040528060608152602001606081526020016000151581525090565b600080fd5b600080fd5b600073ffffffffffffffffffffffffffffffffffffffff82169050919050565b6000612eae82612e83565b9050919050565b612ebe81612ea3565b8114612ec957600080fd5b50565b600081359050612edb81612eb5565b92915050565b600060208284031215612ef757612ef6612e79565b5b6000612f0584828501612ecc565b91505092915050565b600081519050919050565b600082825260208201905092915050565b60005b83811015612f48578082015181840152602081019050612f2d565b60008484015250505050565b6000601f19601f8301169050919050565b6000612f7082612f0e565b612f7a8185612f19565b9350612f8a818560208601612f2a565b612f9381612f54565b840191505092915050565b6000819050919050565b612fb181612f9e565b82525050565b60008115159050919050565b612fcc81612fb7565b82525050565b60006080820190508181036000830152612fec8187612f65565b905081810360208301526130008186612f65565b905061300f6040830185612fa8565b61301c6060830184612fc3565b95945050505050565b6000806040838503121561303c5761303b612e79565b5b600061304a85828601612ecc565b925050602061305b85828601612ecc565b9150509250929050565b600060208201905061307a6000830184612fc3565b92915050565b7f4e487b7100000000000000000000000000000000000000000000000000000000600052602160045260246000fd5b600381106130c0576130bf613080565b5b50565b60008190506130d1826130af565b919050565b60006130e1826130c3565b9050919050565b6130f1816130d6565b82525050565b600060208201905061310c60008301846130e8565b92915050565b600082825260208201905092915050565b600061312e82612f0e565b6131388185613112565b9350613148818560208601612f2a565b61315181612f54565b840191505092915050565b61316581612f9e565b82525050565b61317481612fb7565b82525050565b600060808301600083015184820360008601526131978282613123565b915050602083015184820360208601526131b18282613123565b91505060408301516131c6604086018261315c565b5060608301516131d9606086018261316b565b508091505092915050565b600060208201905081810360008301526131fe818461317a565b905092915050565b600060608301600083015184820360008601526132238282613123565b9150506020830151848203602086015261323d8282613123565b9150506040830151613252604086018261316b565b508091505092915050565b600060208201905081810360008301526132778184613206565b905092915050565b61328881612f9e565b811461329357600080fd5b50565b6000813590506132a58161327f565b92915050565b600080604083850312156132c2576132c1612e79565b5b60006132d085828601612ecc565b92505060206132e185828601613296565b9150509250929050565b6132f481612ea3565b82525050565b600061010082019050613310600083018b6132eb565b8181036020830152613322818a612f65565b905081810360408301526133368189612f65565b9050818103606083015261334a8188612f65565b9050818103608083015261335e8187612f65565b905081810360a08301526133728186612f65565b905081810360c08301526133868185612f65565b905061339560e0830184612fa8565b9998505050505050505050565b600080fd5b600080fd5b600080fd5b60008083601f8401126133c7576133c66133a2565b5b8235905067ffffffffffffffff8111156133e4576133e36133a7565b5b602083019150836001820283011115613400576133ff6133ac565b5b9250929050565b600080600080600080600080600080600060c08c8e03121561342c5761342b612e79565b5b600061343a8e828f01612ecc565b9b505060208c013567ffffffffffffffff81111561345b5761345a612e7e565b5b6134678e828f016133b1565b9a509a505060408c013567ffffffffffffffff81111561348a57613489612e7e565b5b6134968e828f016133b1565b985098505060608c013567ffffffffffffffff8111156134b9576134b8612e7e565b5b6134c58e828f016133b1565b965096505060808c013567ffffffffffffffff8111156134e8576134e7612e7e565b5b6134f48e828f016133b1565b945094505060a08c013567ffffffffffffffff81111561351757613516612e7e565b5b6135238e828f016133b1565b92509250509295989b509295989b9093969950565b6000806000806040858703121561355257613551612e79565b5b600085013567ffffffffffffffff8111156135705761356f612e7e565b5b61357c878288016133b1565b9450945050602085013567ffffffffffffffff81111561359f5761359e612e7e565b5b6135ab878288016133b1565b925092505092959194509250565b6000806000806000606086880312156135d5576135d4612e79565b5b600086013567ffffffffffffffff8111156135f3576135f2612e7e565b5b6135ff888289016133b1565b9550955050602086013567ffffffffffffffff81111561362257613621612e7e565b5b61362e888289016133b1565b9350935050604061364188828901613296565b9150509295509295909350565b600060608201905081810360008301526136688186612f65565b9050818103602083015261367c8185612f65565b905061368b6040830184612fc3565b949350505050565b600081519050919050565b600082825260208201905092915050565b6000819050602082019050919050565b6136c881612ea3565b82525050565b60006136da83836136bf565b60208301905092915050565b6000602082019050919050565b60006136fe82613693565b613708818561369e565b9350613713836136af565b8060005b8381101561374457815161372b88826136ce565b9750613736836136e6565b925050600181019050613717565b5085935050505092915050565b6000602082019050818103600083015261376b81846136f3565b905092915050565b600081519050919050565b600082825260208201905092915050565b6000819050602082019050919050565b6000610100830160008301516137b860008601826136bf565b50602083015184820360208601526137d08282613123565b915050604083015184820360408601526137ea8282613123565b915050606083015184820360608601526138048282613123565b9150506080830151848203608086015261381e8282613123565b91505060a083015184820360a08601526138388282613123565b91505060c083015184820360c08601526138528282613123565b91505060e083015161386760e086018261315c565b508091505092915050565b600061387e838361379f565b905092915050565b6000602082019050919050565b600061389e82613773565b6138a8818561377e565b9350836020820285016138ba8561378f565b8060005b858110156138f657848403895281516138d78582613872565b94506138e283613886565b925060208a019950506001810190506138be565b50829750879550505050505092915050565b600060208201905081810360008301526139228184613893565b905092915050565b600060208201905061393f60008301846132eb565b92915050565b7f4e487b7100000000000000000000000000000000000000000000000000000000600052602260045260246000fd5b6000600282049050600182168061398c57607f821691505b60208210810361399f5761399e613945565b5b50919050565b7f4f6e6c792070617469656e74732063616e206772616e74206163636573730000600082015250565b60006139db601e83612f19565b91506139e6826139a5565b602082019050919050565b60006020820190508181036000830152613a0a816139ce565b9050919050565b7f43616e206f6e6c79206772616e742061636365737320746f20646f63746f7273600082015250565b6000613a47602083612f19565b9150613a5282613a11565b602082019050919050565b60006020820190508181036000830152613a7681613a3a565b9050919050565b7f446f63746f72206e6f7420726567697374657265640000000000000000000000600082015250565b6000613ab3601583612f19565b9150613abe82613a7d565b602082019050919050565b60006020820190508181036000830152613ae281613aa6565b9050919050565b7f4e487b7100000000000000000000000000000000000000000000000000000000600052603260045260246000fd5b7f50617469656e74206e6f74207265676973746572656400000000000000000000600082015250565b6000613b4e601683612f19565b9150613b5982613b18565b602082019050919050565b60006020820190508181036000830152613b7d81613b41565b9050919050565b7f4f6e6c792070617469656e74732063616e207265766f6b652061636365737300600082015250565b6000613bba601f83612f19565b9150613bc582613b84565b602082019050919050565b60006020820190508181036000830152613be981613bad565b9050919050565b7f4f6e6c7920646f63746f72732063616e20646961676e6f736500000000000000600082015250565b6000613c26601983612f19565b9150613c3182613bf0565b602082019050919050565b60006020820190508181036000830152613c5581613c19565b9050919050565b7f416363657373206e6f74206772616e7465642062792070617469656e74000000600082015250565b6000613c92601d83612f19565b9150613c9d82613c5c565b602082019050919050565b60006020820190508181036000830152613cc181613c85565b9050919050565b7f446961676e6f7369732064657461696c73207265717569726564000000000000600082015250565b6000613cfe601a83612f19565b9150613d0982613cc8565b602082019050919050565b60006020820190508181036000830152613d2d81613cf1565b9050919050565b7f54726561746d656e742072657175697265640000000000000000000000000000600082015250565b6000613d6a601283612f19565b9150613d7582613d34565b602082019050919050565b60006020820190508181036000830152613d9981613d5d565b9050919050565b7f4e487b7100000000000000000000000000000000000000000000000000000000600052604160045260246000fd5b60008190508160005260206000209050919050565b60006020601f8301049050919050565b600082821b905092915050565b600060088302613e317fffffffffffffffffffffffffffffffffffffffffffffffffffffffffffffffff82613df4565b613e3b8683613df4565b95508019841693508086168417925050509392505050565b6000819050919050565b6000613e78613e73613e6e84612f9e565b613e53565b612f9e565b9050919050565b6000819050919050565b613e9283613e5d565b613ea6613e9e82613e7f565b848454613e01565b825550505050565b600090565b613ebb613eae565b613ec6818484613e89565b505050565b5b81811015613eea57613edf600082613eb3565b600181019050613ecc565b5050565b601f821115613f2f57613f0081613dcf565b613f0984613de4565b81016020851015613f18578190505b613f2c613f2485613de4565b830182613ecb565b50505b505050565b600082821c905092915050565b6000613f5260001984600802613f34565b1980831691505092915050565b6000613f6b8383613f41565b9150826002028217905092915050565b613f8482612f0e565b67ffffffffffffffff811115613f9d57613f9c613da0565b5b613fa78254613974565b613fb2828285613eee565b600060209050601f831160018114613fe55760008415613fd3578287015190505b613fdd8582613f5f565b865550614045565b601f198416613ff386613dcf565b60005b8281101561401b57848901518255600182019150602085019450602081019050613ff6565b868310156140385784890151614034601f891682613f41565b8355505b6001600288020188555050505b505050505050565b7f416c726561647920726567697374657265640000000000000000000000000000600082015250565b6000614083601283612f19565b915061408e8261404d565b602082019050919050565b600060208201905081810360008301526140b281614076565b9050919050565b7f446f63746f7220616c7265616479207265676973746572656400000000000000600082015250565b60006140ef601983612f19565b91506140fa826140b9565b602082019050919050565b6000602082019050818103600083015261411e816140e2565b9050919050565b7f50617469656e7420616c72656164792072656769737465726564000000000000600082015250565b600061415b601a83612f19565b915061416682614125565b602082019050919050565b6000602082019050818103600083015261418a8161414e565b9050919050565b7f4e487b7100000000000000000000000000000000000000000000000000000000600052601160045260246000fd5b60006141cb82612f9e565b91507fffffffffffffffffffffffffffffffffffffffffffffffffffffffffffffffff82036141fd576141fc614191565b5b600182019050919050565b7f4163636573732064656e69656400000000000000000000000000000000000000600082015250565b600061423e600d83612f19565b915061424982614208565b602082019050919050565b6000602082019050818103600083015261426d81614231565b905091905056fea26469706673582212204d34fb84b7babd8195d4226e5aa20ea0861b380a1ad5a498d8f3c690c648616264736f6c634300081c0033",
  "linkReferences": {},
  "deployedLinkReferences": {}
}