{
  "_format": "hh-sol-artifact-1",
  "contractName": "MedicalRecordAccess",
  "sourceName": "contracts/MedicalRecordAccess.sol",
  "abi": [
    {
      "inputs": [
        {
          "internalType": "address",
          "name": "",
          "type": "address"
        },
        {
          "internalType": "address",
          "name": "",
          "type": "address"
        }
      ],
      "name": "accessPermissions",
      "outputs": [
        {
          "internalType": "bool",
          "name": "",
          "type": "bool"
        }
      ],
      "stateMutability": "view",
      "type": "function"
    },
    {
      "inputs": [
        {
          "internalType": "address",
          "name": "patient",
          "type": "address"
        },
        {
          "internalType": "string",
          "name": "diagnosisDetails",
          "type": "string"
        },
        {
          "internalType": "string",
          "name": "temperature",
          "type": "string"
        },
        {
          "internalType": "string",
          "name": "weight",
          "type": "string"
        },
        {
          "internalType": "string",
          "name": "bloodPressure",
          "type": "string"
        },
        {
          "internalType": "string",
          "name": "treatment",
          "type": "string"
        }
      ],
      "name": "addDiagnosis",
      "outputs": [],
      "stateMutability": "nonpayable",
      "type": "function"
    },
    {
      "inputs": [
        {
          "internalType": "address",
          "name": "",
          "type": "address"
        },
        {
          "internalType": "uint256",
          "name": "",
          "type": "uint256"
        }
      ],
      "name": "diagnoses",
      "outputs": [
        {
          "internalType": "address",
          "name": "doctor",
          "type": "address"
        },
        {
          "internalType": "string",
          "name": "doctorName",
          "type": "string"
        },
        {
          "internalType": "string",
          "name": "diagnosisDetails",
          "type": "string"
        },
        {
          "internalType": "string",
          "name": "temperature",
          "type": "string"
        },
        {
          "internalType": "string",
          "name": "weight",
          "type": "string"
        },
        {
          "internalType": "string",
          "name": "bloodPressure",
          "type": "string"
        },
        {
          "internalType": "string",
          "name": "treatment",
          "type": "string"
        },
        {
          "internalType": "uint256",
          "name": "timestamp",
          "type": "uint256"
        }
      ],
      "stateMutability": "view",
      "type": "function"
    },
    {
      "inputs": [
        {
          "internalType": "address",
          "name": "",
          "type": "address"
        }
      ],
      "name": "doctors",
      "outputs": [
        {
          "internalType": "string",
          "name": "name",
          "type": "string"
        },
        {
          "internalType": "string",
          "name": "specialty",
          "type": "string"
        },
        {
          "internalType": "bool",
          "name": "exists",
          "type": "bool"
        }
      ],
      "stateMutability": "view",
      "type": "function"
    },
    {
      "inputs": [
        {
          "internalType": "address",
          "name": "patient",
          "type": "address"
        }
      ],
      "name": "getDiagnoses",
      "outputs": [
        {
          "components": [
            {
              "internalType": "address",
              "name": "doctor",
              "type": "address"
            },
            {
              "internalType": "string",
              "name": "doctorName",
              "type": "string"
            },
            {
              "internalType": "string",
              "name": "diagnosisDetails",
              "type": "string"
            },
            {
              "internalType": "string",
              "name": "temperature",
              "type": "string"
            },
            {
              "internalType": "string",
              "name": "weight",
              "type": "string"
            },
            {
              "internalType": "string",
              "name": "bloodPressure",
              "type": "string"
            },
            {
              "internalType": "string",
              "name": "treatment",
              "type": "string"
            },
            {
              "internalType": "uint256",
              "name": "timestamp",
              "type": "uint256"
            }
          ],
          "internalType": "struct MedicalRecordAccess.Diagnosis[]",
          "name": "",
          "type": "tuple[]"
        }
      ],
      "stateMutability": "view",
      "type": "function"
    },
    {
      "inputs": [
        {
          "internalType": "address",
          "name": "doctor",
          "type": "address"
        }
      ],
      "name": "getDoctorProfile",
      "outputs": [
        {
          "components": [
            {
              "internalType": "string",
              "name": "name",
              "type": "string"
            },
            {
              "internalType": "string",
              "name": "specialty",
              "type": "string"
            },
            {
              "internalType": "bool",
              "name": "exists",
              "type": "bool"
            }
          ],
          "internalType": "struct MedicalRecordAccess.DoctorProfile",
          "name": "",
          "type": "tuple"
        }
      ],
      "stateMutability": "view",
      "type": "function"
    },
    {
      "inputs": [
        {
          "internalType": "address",
          "name": "patient",
          "type": "address"
        }
      ],
      "name": "getGrantedDoctors",
      "outputs": [
        {
          "internalType": "address[]",
          "name": "",
          "type": "address[]"
        }
      ],
      "stateMutability": "view",
      "type": "function"
    },
    {
      "inputs": [
        {
          "internalType": "address",
          "name": "patient",
          "type": "address"
        }
      ],
      "name": "getPatientProfile",
      "outputs": [
        {
          "components": [
            {
              "internalType": "string",
              "name": "name",
              "type": "string"
            },
            {
              "internalType": "string",
              "name": "gender",
              "type": "string"
            },
            {
              "internalType": "uint256",
              "name": "age",
              "type": "uint256"
            },
            {
              "internalType": "bool",
              "name": "exists",
              "type": "bool"
            }
          ],
          "internalType": "struct MedicalRecordAccess.PatientProfile",
          "name": "",
          "type": "tuple"
        }
      ],
      "stateMutability": "view",
      "type": "function"
    },
    {
      "inputs": [
        {
          "internalType": "address",
          "name": "doctor",
          "type": "address"
        }
      ],
      "name": "grantAccess",
      "outputs": [],
      "stateMutability": "nonpayable",
      "type": "function"
    },
    {
      "inputs": [
        {
          "internalType": "address",
          "name": "doctor",
          "type": "address"
        },
        {
          "internalType": "address",
          "name": "patient",
          "type": "address"
        }
      ],
      "name": "hasAccess",
      "outputs": [
        {
          "internalType": "bool",
          "name": "",
          "type": "bool"
        }
      ],
      "stateMutability": "view",
      "type": "function"
    },
    {
      "inputs": [
        {
          "internalType": "address",
          "name": "",
          "type": "address"
        },
        {
          "internalType": "uint256",
          "name": "",
          "type": "uint256"
        }
      ],
      "name": "patientDoctors",
      "outputs": [
        {
          "internalType": "address",
          "name": "",
          "type": "address"
        }
      ],
      "stateMutability": "view",
      "type": "function"
    },
    {
      "inputs": [
        {
          "internalType": "address",
          "name": "",
          "type": "address"
        }
      ],
      "name": "patients",
      "outputs": [
        {
          "internalType": "string",
          "name": "name",
          "type": "string"
        },
        {
          "internalType": "string",
          "name": "gender",
          "type": "string"
        },
        {
          "internalType": "uint256",
          "name": "age",
          "type": "uint256"
        },
        {
          "internalType": "bool",
          "name": "exists",
          "type": "bool"
        }
      ],
      "stateMutability": "view",
      "type": "function"
    },
    {
      "inputs": [
        {
          "internalType": "string",
          "name": "name",
          "type": "string"
        },
        {
          "internalType": "string",
          "name": "specialty",
          "type": "string"
        }
      ],
      "name": "registerAsDoctor",
      "outputs": [],
      "stateMutability": "nonpayable",
      "type": "function"
    },
    {
      "inputs": [
        {
          "internalType": "string",
          "name": "name",
          "type": "string"
        },
        {
          "internalType": "string",
          "name": "gender",
          "type": "string"
        },
        {
          "internalType": "uint256",
          "name": "age",
          "type": "uint256"
        }
      ],
      "name": "registerAsPatient",
      "outputs": [],
      "stateMutability": "nonpayable",
      "type": "function"
    },
    {
      "inputs": [
        {
          "internalType": "address",
          "name": "doctor",
          "type": "address"
        }
      ],
      "name": "revokeAccess",
      "outputs": [],
      "stateMutability": "nonpayable",
      "type": "function"
    },
    {
      "inputs": [
        {
          "internalType": "address",
          "name": "",
          "type": "address"
        }
      ],
      "name": "roles",
      "outputs": [
        {
          "internalType": "enum MedicalRecordAccess.Role",
          "name": "",
          "type": "uint8"
        }
      ],
      "stateMutability": "view",
      "type": "function"
    }
  ],
  "bytecode": "0x6080604052348015600f57600080fd5b506141948061001f6000396000f3fe608060405234801561001057600080fd5b50600436106101005760003560e01c8063873f058111610097578063a9583c2211610066578063a9583c22146102eb578063b092624c1461031d578063c97c829d1461034d578063dafe614e1461037d57610100565b8063873f058114610267578063875c7e4e14610283578063903333b91461029f57806399374642146102bb57610100565b80635cbcd8eb116100d35780635cbcd8eb146101b457806364b3b525146101e45780637736bfbf1461021457806385e685311461024b57610100565b80630869cfbc146101055780630ae5e739146101385780631709ef0714610154578063461a208214610184575b600080fd5b61011f600480360381019061011a9190612dcb565b6103ad565b60405161012f9493929190612ebc565b60405180910390f35b610152600480360381019061014d9190612dcb565b6104fa565b005b61016e60048036038101906101699190612f0f565b61093e565b60405161017b9190612f4f565b60405180910390f35b61019e60048036038101906101999190612dcb565b6109d2565b6040516101ab919061303c565b60405180910390f35b6101ce60048036038101906101c99190612dcb565b610c03565b6040516101db91906130b5565b60405180910390f35b6101fe60048036038101906101f99190612f0f565b610e2a565b60405161020b9190612f4f565b60405180910390f35b61022e60048036038101906102299190613103565b610e59565b604051610242989796959493929190613152565b60405180910390f35b61026560048036038101906102609190612dcb565b61120e565b005b610281600480360381019061027c919061325f565b6113e7565b005b61029d60048036038101906102989190613390565b611b7a565b005b6102b960048036038101906102b49190613411565b611e5d565b005b6102d560048036038101906102d09190612dcb565b612151565b6040516102e2919061351d565b60405180910390f35b61030560048036038101906103009190612dcb565b612171565b60405161031493929190613538565b60405180910390f35b61033760048036038101906103329190612dcb565b6122b8565b604051610344919061363b565b60405180910390f35b61036760048036038101906103629190612dcb565b6125e7565b60405161037491906137f2565b60405180910390f35b61039760048036038101906103929190613103565b612be0565b6040516103a49190613814565b60405180910390f35b60016020528060005260406000206000915090508060000180546103d09061385e565b80601f01602080910402602001604051908101604052809291908181526020018280546103fc9061385e565b80156104495780601f1061041e57610100808354040283529160200191610449565b820191906000526020600020905b81548152906001019060200180831161042c57829003601f168201915b50505050509080600101805461045e9061385e565b80601f016020809104026020016040519081016040528092919081815260200182805461048a9061385e565b80156104d75780601f106104ac576101008083540402835291602001916104d7565b820191906000526020600020905b8154815290600101906020018083116104ba57829003601f168201915b5050505050908060020154908060030160009054906101000a900460ff16905084565b6001600281111561050e5761050d6134a6565b5b6000803373ffffffffffffffffffffffffffffffffffffffff1673ffffffffffffffffffffffffffffffffffffffff16815260200190815260200160002060009054906101000a900460ff16600281111561056c5761056b6134a6565b5b146105ac576040517f08c379a00000000000000000000000000000000000000000000000000000000081526004016105a3906138db565b60405180910390fd5b6002808111156105bf576105be6134a6565b5b6000808373ffffffffffffffffffffffffffffffffffffffff1673ffffffffffffffffffffffffffffffffffffffff16815260200190815260200160002060009054906101000a900460ff16600281111561061d5761061c6134a6565b5b1461065d576040517f08c379a000000000000000000000000000000000000000000000000000000000815260040161065490613947565b60405180910390fd5b600260008273ffffffffffffffffffffffffffffffffffffffff1673ffffffffffffffffffffffffffffffffffffffff16815260200190815260200160002060020160009054906101000a900460ff166106ec576040517f08c379a00000000000000000000000000000000000000000000000000000000081526004016106e3906139b3565b60405180910390fd5b6001600360003373ffffffffffffffffffffffffffffffffffffffff1673ffffffffffffffffffffffffffffffffffffffff16815260200190815260200160002060008373ffffffffffffffffffffffffffffffffffffffff1673ffffffffffffffffffffffffffffffffffffffff16815260200190815260200160002060006101000a81548160ff0219169083151502179055506000805b600560003373ffffffffffffffffffffffffffffffffffffffff1673ffffffffffffffffffffffffffffffffffffffff16815260200190815260200160002080549050811015610893578273ffffffffffffffffffffffffffffffffffffffff16600560003373ffffffffffffffffffffffffffffffffffffffff1673ffffffffffffffffffffffffffffffffffffffff1681526020019081526020016000208281548110610837576108366139d3565b5b9060005260206000200160009054906101000a900473ffffffffffffffffffffffffffffffffffffffff1673ffffffffffffffffffffffffffffffffffffffff16036108865760019150610893565b8080600101915050610785565b508061093a57600560003373ffffffffffffffffffffffffffffffffffffffff1673ffffffffffffffffffffffffffffffffffffffff168152602001908152602001600020829080600181540180825580915050600190039060005260206000200160009091909190916101000a81548173ffffffffffffffffffffffffffffffffffffffff021916908373ffffffffffffffffffffffffffffffffffffffff1602179055505b5050565b6000600360008373ffffffffffffffffffffffffffffffffffffffff1673ffffffffffffffffffffffffffffffffffffffff16815260200190815260200160002060008473ffffffffffffffffffffffffffffffffffffffff1673ffffffffffffffffffffffffffffffffffffffff16815260200190815260200160002060009054906101000a900460ff16905092915050565b6109da612d16565b600160008373ffffffffffffffffffffffffffffffffffffffff1673ffffffffffffffffffffffffffffffffffffffff16815260200190815260200160002060030160009054906101000a900460ff16610a69576040517f08c379a0000000000000000000000000000000000000000000000000000000008152600401610a6090613a4e565b60405180910390fd5b600160008373ffffffffffffffffffffffffffffffffffffffff1673ffffffffffffffffffffffffffffffffffffffff168152602001908152602001600020604051806080016040529081600082018054610ac39061385e565b80601f0160208091040260200160405190810160405280929190818152602001828054610aef9061385e565b8015610b3c5780601f10610b1157610100808354040283529160200191610b3c565b820191906000526020600020905b815481529060010190602001808311610b1f57829003601f168201915b50505050508152602001600182018054610b559061385e565b80601f0160208091040260200160405190810160405280929190818152602001828054610b819061385e565b8015610bce5780601f10610ba357610100808354040283529160200191610bce565b820191906000526020600020905b815481529060010190602001808311610bb157829003601f168201915b50505050508152602001600282015481526020016003820160009054906101000a900460ff1615151515815250509050919050565b610c0b612d40565b600260008373ffffffffffffffffffffffffffffffffffffffff1673ffffffffffffffffffffffffffffffffffffffff16815260200190815260200160002060020160009054906101000a900460ff16610c9a576040517f08c379a0000000000000000000000000000000000000000000000000000000008152600401610c91906139b3565b60405180910390fd5b600260008373ffffffffffffffffffffffffffffffffffffffff1673ffffffffffffffffffffffffffffffffffffffff168152602001908152602001600020604051806060016040529081600082018054610cf49061385e565b80601f0160208091040260200160405190810160405280929190818152602001828054610d209061385e565b8015610d6d5780601f10610d4257610100808354040283529160200191610d6d565b820191906000526020600020905b815481529060010190602001808311610d5057829003601f168201915b50505050508152602001600182018054610d869061385e565b80601f0160208091040260200160405190810160405280929190818152602001828054610db29061385e565b8015610dff5780601f10610dd457610100808354040283529160200191610dff565b820191906000526020600020905b815481529060010190602001808311610de257829003601f168201915b505050505081526020016002820160009054906101000a900460ff1615151515815250509050919050565b60036020528160005260406000206020528060005260406000206000915091509054906101000a900460ff1681565b60046020528160005260406000208181548110610e7557600080fd5b9060005260206000209060080201600091509150508060000160009054906101000a900473ffffffffffffffffffffffffffffffffffffffff1690806001018054610ebf9061385e565b80601f0160208091040260200160405190810160405280929190818152602001828054610eeb9061385e565b8015610f385780601f10610f0d57610100808354040283529160200191610f38565b820191906000526020600020905b815481529060010190602001808311610f1b57829003601f168201915b505050505090806002018054610f4d9061385e565b80601f0160208091040260200160405190810160405280929190818152602001828054610f799061385e565b8015610fc65780601f10610f9b57610100808354040283529160200191610fc6565b820191906000526020600020905b815481529060010190602001808311610fa957829003601f168201915b505050505090806003018054610fdb9061385e565b80601f01602080910402602001604051908101604052809291908181526020018280546110079061385e565b80156110545780601f1061102957610100808354040283529160200191611054565b820191906000526020600020905b81548152906001019060200180831161103757829003601f168201915b5050505050908060040180546110699061385e565b80601f01602080910402602001604051908101604052809291908181526020018280546110959061385e565b80156110e25780601f106110b7576101008083540402835291602001916110e2565b820191906000526020600020905b8154815290600101906020018083116110c557829003601f168201915b5050505050908060050180546110f79061385e565b80601f01602080910402602001604051908101604052809291908181526020018280546111239061385e565b80156111705780601f1061114557610100808354040283529160200191611170565b820191906000526020600020905b81548152906001019060200180831161115357829003601f168201915b5050505050908060060180546111859061385e565b80601f01602080910402602001604051908101604052809291908181526020018280546111b19061385e565b80156111fe5780601f106111d3576101008083540402835291602001916111fe565b820191906000526020600020905b8154815290600101906020018083116111e157829003601f168201915b5050505050908060070154905088565b60016002811115611222576112216134a6565b5b6000803373ffffffffffffffffffffffffffffffffffffffff1673ffffffffffffffffffffffffffffffffffffffff16815260200190815260200160002060009054906101000a900460ff1660028111156112805761127f6134a6565b5b146112c0576040517f08c379a00000000000000000000000000000000000000000000000000000000081526004016112b790613aba565b60405180910390fd5b600260008273ffffffffffffffffffffffffffffffffffffffff1673ffffffffffffffffffffffffffffffffffffffff16815260200190815260200160002060020160009054906101000a900460ff1661134f576040517f08c379a0000000000000000000000000000000000000000000000000000000008152600401611346906139b3565b60405180910390fd5b6000600360003373ffffffffffffffffffffffffffffffffffffffff1673ffffffffffffffffffffffffffffffffffffffff16815260200190815260200160002060008373ffffffffffffffffffffffffffffffffffffffff1673ffffffffffffffffffffffffffffffffffffffff16815260200190815260200160002060006101000a81548160ff02191690831515021790555050565b6002808111156113fa576113f96134a6565b5b6000803373ffffffffffffffffffffffffffffffffffffffff1673ffffffffffffffffffffffffffffffffffffffff16815260200190815260200160002060009054906101000a900460ff166002811115611458576114576134a6565b5b14611498576040517f08c379a000000000000000000000000000000000000000000000000000000000815260040161148f90613b26565b60405180910390fd5b600260003373ffffffffffffffffffffffffffffffffffffffff1673ffffffffffffffffffffffffffffffffffffffff16815260200190815260200160002060020160009054906101000a900460ff16611527576040517f08c379a000000000000000000000000000000000000000000000000000000000815260040161151e906139b3565b60405180910390fd5b600160008c73ffffffffffffffffffffffffffffffffffffffff1673ffffffffffffffffffffffffffffffffffffffff16815260200190815260200160002060030160009054906101000a900460ff166115b6576040517f08c379a00000000000000000000000000000000000000000000000000000000081526004016115ad90613a4e565b60405180910390fd5b600360008c73ffffffffffffffffffffffffffffffffffffffff1673ffffffffffffffffffffffffffffffffffffffff16815260200190815260200160002060003373ffffffffffffffffffffffffffffffffffffffff1673ffffffffffffffffffffffffffffffffffffffff16815260200190815260200160002060009054906101000a900460ff1661167f576040517f08c379a000000000000000000000000000000000000000000000000000000000815260040161167690613b92565b60405180910390fd5b60008a8a9050116116c5576040517f08c379a00000000000000000000000000000000000000000000000000000000081526004016116bc90613bfe565b60405180910390fd5b6000828290501161170b576040517f08c379a000000000000000000000000000000000000000000000000000000000815260040161170290613c6a565b60405180910390fd5b60006040518061010001604052803373ffffffffffffffffffffffffffffffffffffffff168152602001600260003373ffffffffffffffffffffffffffffffffffffffff1673ffffffffffffffffffffffffffffffffffffffff16815260200190815260200160002060000180546117829061385e565b80601f01602080910402602001604051908101604052809291908181526020018280546117ae9061385e565b80156117fb5780601f106117d0576101008083540402835291602001916117fb565b820191906000526020600020905b8154815290600101906020018083116117de57829003601f168201915b505050505081526020018c8c8080601f016020809104026020016040519081016040528093929190818152602001838380828437600081840152601f19601f8201169050808301925050505050505081526020018a8a8080601f016020809104026020016040519081016040528093929190818152602001838380828437600081840152601f19601f82011690508083019250505050505050815260200188888080601f016020809104026020016040519081016040528093929190818152602001838380828437600081840152601f19601f82011690508083019250505050505050815260200186868080601f016020809104026020016040519081016040528093929190818152602001838380828437600081840152601f19601f82011690508083019250505050505050815260200184848080601f016020809104026020016040519081016040528093929190818152602001838380828437600081840152601f19601f820116905080830192505050505050508152602001428152509050600460008d73ffffffffffffffffffffffffffffffffffffffff1673ffffffffffffffffffffffffffffffffffffffff16815260200190815260200160002081908060018154018082558091505060019003906000526020600020906008020160009091909190915060008201518160000160006101000a81548173ffffffffffffffffffffffffffffffffffffffff021916908373ffffffffffffffffffffffffffffffffffffffff1602179055506020820151816001019081611a429190613e65565b506040820151816002019081611a589190613e65565b506060820151816003019081611a6e9190613e65565b506080820151816004019081611a849190613e65565b5060a0820151816005019081611a9a9190613e65565b5060c0820151816006019081611ab09190613e65565b5060e082015181600701555050611ac78c33612c2e565b611b6c57600560008d73ffffffffffffffffffffffffffffffffffffffff1673ffffffffffffffffffffffffffffffffffffffff168152602001908152602001600020339080600181540180825580915050600190039060005260206000200160009091909190916101000a81548173ffffffffffffffffffffffffffffffffffffffff021916908373ffffffffffffffffffffffffffffffffffffffff1602179055505b505050505050505050505050565b60006002811115611b8e57611b8d6134a6565b5b6000803373ffffffffffffffffffffffffffffffffffffffff1673ffffffffffffffffffffffffffffffffffffffff16815260200190815260200160002060009054906101000a900460ff166002811115611bec57611beb6134a6565b5b14611c2c576040517f08c379a0000000000000000000000000000000000000000000000000000000008152600401611c2390613f83565b60405180910390fd5b600260003373ffffffffffffffffffffffffffffffffffffffff1673ffffffffffffffffffffffffffffffffffffffff16815260200190815260200160002060020160009054906101000a900460ff1615611cbc576040517f08c379a0000000000000000000000000000000000000000000000000000000008152600401611cb390613fef565b60405180910390fd5b60026000803373ffffffffffffffffffffffffffffffffffffffff1673ffffffffffffffffffffffffffffffffffffffff16815260200190815260200160002060006101000a81548160ff02191690836002811115611d1e57611d1d6134a6565b5b0217905550604051806060016040528085858080601f016020809104026020016040519081016040528093929190818152602001838380828437600081840152601f19601f82011690508083019250505050505050815260200183838080601f016020809104026020016040519081016040528093929190818152602001838380828437600081840152601f19601f82011690508083019250505050505050815260200160011515815250600260003373ffffffffffffffffffffffffffffffffffffffff1673ffffffffffffffffffffffffffffffffffffffff1681526020019081526020016000206000820151816000019081611e1d9190613e65565b506020820151816001019081611e339190613e65565b5060408201518160020160006101000a81548160ff02191690831515021790555090505050505050565b60006002811115611e7157611e706134a6565b5b6000803373ffffffffffffffffffffffffffffffffffffffff1673ffffffffffffffffffffffffffffffffffffffff16815260200190815260200160002060009054906101000a900460ff166002811115611ecf57611ece6134a6565b5b14611f0f576040517f08c379a0000000000000000000000000000000000000000000000000000000008152600401611f0690613f83565b60405180910390fd5b600160003373ffffffffffffffffffffffffffffffffffffffff1673ffffffffffffffffffffffffffffffffffffffff16815260200190815260200160002060030160009054906101000a900460ff1615611f9f576040517f08c379a0000000000000000000000000000000000000000000000000000000008152600401611f969061405b565b60405180910390fd5b60016000803373ffffffffffffffffffffffffffffffffffffffff1673ffffffffffffffffffffffffffffffffffffffff16815260200190815260200160002060006101000a81548160ff02191690836002811115612001576120006134a6565b5b0217905550604051806080016040528086868080601f016020809104026020016040519081016040528093929190818152602001838380828437600081840152601f19601f82011690508083019250505050505050815260200184848080601f016020809104026020016040519081016040528093929190818152602001838380828437600081840152601f19601f82011690508083019250505050505050815260200182815260200160011515815250600160003373ffffffffffffffffffffffffffffffffffffffff1673ffffffffffffffffffffffffffffffffffffffff16815260200190815260200160002060008201518160000190816121069190613e65565b50602082015181600101908161211c9190613e65565b506040820151816002015560608201518160030160006101000a81548160ff0219169083151502179055509050505050505050565b60006020528060005260406000206000915054906101000a900460ff1681565b60026020528060005260406000206000915090508060000180546121949061385e565b80601f01602080910402602001604051908101604052809291908181526020018280546121c09061385e565b801561220d5780601f106121e25761010080835404028352916020019161220d565b820191906000526020600020905b8154815290600101906020018083116121f057829003601f168201915b5050505050908060010180546122229061385e565b80601f016020809104026020016040519081016040528092919081815260200182805461224e9061385e565b801561229b5780601f106122705761010080835404028352916020019161229b565b820191906000526020600020905b81548152906001019060200180831161227e57829003601f168201915b5050505050908060020160009054906101000a900460ff16905083565b60606000600560008473ffffffffffffffffffffffffffffffffffffffff1673ffffffffffffffffffffffffffffffffffffffff16815260200190815260200160002080548060200260200160405190810160405280929190818152602001828054801561237b57602002820191906000526020600020905b8160009054906101000a900473ffffffffffffffffffffffffffffffffffffffff1673ffffffffffffffffffffffffffffffffffffffff1681526020019060010190808311612331575b505050505090506000805b825181101561245457600360008673ffffffffffffffffffffffffffffffffffffffff1673ffffffffffffffffffffffffffffffffffffffff16815260200190815260200160002060008483815181106123e3576123e26139d3565b5b602002602001015173ffffffffffffffffffffffffffffffffffffffff1673ffffffffffffffffffffffffffffffffffffffff16815260200190815260200160002060009054906101000a900460ff1615612447578180612443906140aa565b9250505b8080600101915050612386565b5060008167ffffffffffffffff81111561247157612470613c8a565b5b60405190808252806020026020018201604052801561249f5781602001602082028036833780820191505090505b5090506000805b84518110156125da57600360008873ffffffffffffffffffffffffffffffffffffffff1673ffffffffffffffffffffffffffffffffffffffff1681526020019081526020016000206000868381518110612503576125026139d3565b5b602002602001015173ffffffffffffffffffffffffffffffffffffffff1673ffffffffffffffffffffffffffffffffffffffff16815260200190815260200160002060009054906101000a900460ff16156125cd5784818151811061256b5761256a6139d3565b5b602002602001015183838061257f906140aa565b945081518110612592576125916139d3565b5b602002602001019073ffffffffffffffffffffffffffffffffffffffff16908173ffffffffffffffffffffffffffffffffffffffff16815250505b80806001019150506124a6565b5081945050505050919050565b6060600160008373ffffffffffffffffffffffffffffffffffffffff1673ffffffffffffffffffffffffffffffffffffffff16815260200190815260200160002060030160009054906101000a900460ff16612678576040517f08c379a000000000000000000000000000000000000000000000000000000000815260040161266f90613a4e565b60405180910390fd5b8173ffffffffffffffffffffffffffffffffffffffff163373ffffffffffffffffffffffffffffffffffffffff1614806127385750600360008373ffffffffffffffffffffffffffffffffffffffff1673ffffffffffffffffffffffffffffffffffffffff16815260200190815260200160002060003373ffffffffffffffffffffffffffffffffffffffff1673ffffffffffffffffffffffffffffffffffffffff16815260200190815260200160002060009054906101000a900460ff165b612777576040517f08c379a000000000000000000000000000000000000000000000000000000000815260040161276e9061413e565b60405180910390fd5b600460008373ffffffffffffffffffffffffffffffffffffffff1673ffffffffffffffffffffffffffffffffffffffff168152602001908152602001600020805480602002602001604051908101604052809291908181526020016000905b82821015612bd55783829060005260206000209060080201604051806101000160405290816000820160009054906101000a900473ffffffffffffffffffffffffffffffffffffffff1673ffffffffffffffffffffffffffffffffffffffff1673ffffffffffffffffffffffffffffffffffffffff1681526020016001820180546128609061385e565b80601f016020809104026020016040519081016040528092919081815260200182805461288c9061385e565b80156128d95780601f106128ae576101008083540402835291602001916128d9565b820191906000526020600020905b8154815290600101906020018083116128bc57829003601f168201915b505050505081526020016002820180546128f29061385e565b80601f016020809104026020016040519081016040528092919081815260200182805461291e9061385e565b801561296b5780601f106129405761010080835404028352916020019161296b565b820191906000526020600020905b81548152906001019060200180831161294e57829003601f168201915b505050505081526020016003820180546129849061385e565b80601f01602080910402602001604051908101604052809291908181526020018280546129b09061385e565b80156129fd5780601f106129d2576101008083540402835291602001916129fd565b820191906000526020600020905b8154815290600101906020018083116129e057829003601f168201915b50505050508152602001600482018054612a169061385e565b80601f0160208091040260200160405190810160405280929190818152602001828054612a429061385e565b8015612a8f5780601f10612a6457610100808354040283529160200191612a8f565b820191906000526020600020905b815481529060010190602001808311612a7257829003601f168201915b50505050508152602001600582018054612aa89061385e565b80601f0160208091040260200160405190810160405280929190818152602001828054612ad49061385e565b8015612b215780601f10612af657610100808354040283529160200191612b21565b820191906000526020600020905b815481529060010190602001808311612b0457829003601f168201915b50505050508152602001600682018054612b3a9061385e565b80601f0160208091040260200160405190810160405280929190818152602001828054612b669061385e565b8015612bb35780601f10612b8857610100808354040283529160200191612bb3565b820191906000526020600020905b815481529060010190602001808311612b9657829003601f168201915b50505050508152602001600782015481525050815260200190600101906127d6565b505050509050919050565b60056020528160005260406000208181548110612bfc57600080fd5b906000526020600020016000915091509054906101000a900473ffffffffffffffffffffffffffffffffffffffff1681565b600080600560008573ffffffffffffffffffffffffffffffffffffffff1673ffffffffffffffffffffffffffffffffffffffff168152602001908152602001600020905060005b8180549050811015612d09578373ffffffffffffffffffffffffffffffffffffffff16828281548110612cab57612caa6139d3565b5b9060005260206000200160009054906101000a900473ffffffffffffffffffffffffffffffffffffffff1673ffffffffffffffffffffffffffffffffffffffff1603612cfc57600192505050612d10565b8080600101915050612c75565b5060009150505b92915050565b60405180608001604052806060815260200160608152602001600081526020016000151581525090565b604051806060016040528060608152602001606081526020016000151581525090565b600080fd5b600080fd5b600073ffffffffffffffffffffffffffffffffffffffff82169050919050565b6000612d9882612d6d565b9050919050565b612da881612d8d565b8114612db357600080fd5b50565b600081359050612dc581612d9f565b92915050565b600060208284031215612de157612de0612d63565b5b6000612def84828501612db6565b91505092915050565b600081519050919050565b600082825260208201905092915050565b60005b83811015612e32578082015181840152602081019050612e17565b60008484015250505050565b6000601f19601f8301169050919050565b6000612e5a82612df8565b612e648185612e03565b9350612e74818560208601612e14565b612e7d81612e3e565b840191505092915050565b6000819050919050565b612e9b81612e88565b82525050565b60008115159050919050565b612eb681612ea1565b82525050565b60006080820190508181036000830152612ed68187612e4f565b90508181036020830152612eea8186612e4f565b9050612ef96040830185612e92565b612f066060830184612ead565b95945050505050565b60008060408385031215612f2657612f25612d63565b5b6000612f3485828601612db6565b9250506020612f4585828601612db6565b9150509250929050565b6000602082019050612f646000830184612ead565b92915050565b600082825260208201905092915050565b6000612f8682612df8565b612f908185612f6a565b9350612fa0818560208601612e14565b612fa981612e3e565b840191505092915050565b612fbd81612e88565b82525050565b612fcc81612ea1565b82525050565b60006080830160008301518482036000860152612fef8282612f7b565b915050602083015184820360208601526130098282612f7b565b915050604083015161301e6040860182612fb4565b5060608301516130316060860182612fc3565b508091505092915050565b600060208201905081810360008301526130568184612fd2565b905092915050565b6000606083016000830151848203600086015261307b8282612f7b565b915050602083015184820360208601526130958282612f7b565b91505060408301516130aa6040860182612fc3565b508091505092915050565b600060208201905081810360008301526130cf818461305e565b905092915050565b6130e081612e88565b81146130eb57600080fd5b50565b6000813590506130fd816130d7565b92915050565b6000806040838503121561311a57613119612d63565b5b600061312885828601612db6565b9250506020613139858286016130ee565b9150509250929050565b61314c81612d8d565b82525050565b600061010082019050613168600083018b613143565b818103602083015261317a818a612e4f565b9050818103604083015261318e8189612e4f565b905081810360608301526131a28188612e4f565b905081810360808301526131b68187612e4f565b905081810360a08301526131ca8186612e4f565b905081810360c08301526131de8185612e4f565b90506131ed60e0830184612e92565b9998505050505050505050565b600080fd5b600080fd5b600080fd5b60008083601f84011261321f5761321e6131fa565b5b8235905067ffffffffffffffff81111561323c5761323b6131ff565b5b60208301915083600182028301111561325857613257613204565b5b9250929050565b600080600080600080600080600080600060c08c8e03121561328457613283612d63565b5b60006132928e828f01612db6565b9b505060208c013567ffffffffffffffff8111156132b3576132b2612d68565b5b6132bf8e828f01613209565b9a509a505060408c013567ffffffffffffffff8111156132e2576132e1612d68565b5b6132ee8e828f01613209565b985098505060608c013567ffffffffffffffff81111561331157613310612d68565b5b61331d8e828f01613209565b965096505060808c013567ffffffffffffffff8111156133405761333f612d68565b5b61334c8e828f01613209565b945094505060a08c013567ffffffffffffffff81111561336f5761336e612d68565b5b61337b8e828f01613209565b92509250509295989b509295989b9093969950565b600080600080604085870312156133aa576133a9612d63565b5b600085013567ffffffffffffffff8111156133c8576133c7612d68565b5b6133d487828801613209565b9450945050602085013567ffffffffffffffff8111156133f7576133f6612d68565b5b61340387828801613209565b925092505092959194509250565b60008060008060006060868803121561342d5761342c612d63565b5b600086013567ffffffffffffffff81111561344b5761344a612d68565b5b61345788828901613209565b9550955050602086013567ffffffffffffffff81111561347a57613479612d68565b5b61348688828901613209565b93509350506040613499888289016130ee565b9150509295509295909350565b7f4e487b7100000000000000000000000000000000000000000000000000000000600052602160045260246000fd5b600381106134e6576134e56134a6565b5b50565b60008190506134f7826134d5565b919050565b6000613507826134e9565b9050919050565b613517816134fc565b82525050565b6000602082019050613532600083018461350e565b92915050565b600060608201905081810360008301526135528186612e4f565b905081810360208301526135668185612e4f565b90506135756040830184612ead565b949350505050565b600081519050919050565b600082825260208201905092915050565b6000819050602082019050919050565b6135b281612d8d565b82525050565b60006135c483836135a9565b60208301905092915050565b6000602082019050919050565b60006135e88261357d565b6135f28185613588565b93506135fd83613599565b8060005b8381101561362e57815161361588826135b8565b9750613620836135d0565b925050600181019050613601565b5085935050505092915050565b6000602082019050818103600083015261365581846135dd565b905092915050565b600081519050919050565b600082825260208201905092915050565b6000819050602082019050919050565b6000610100830160008301516136a260008601826135a9565b50602083015184820360208601526136ba8282612f7b565b915050604083015184820360408601526136d48282612f7b565b915050606083015184820360608601526136ee8282612f7b565b915050608083015184820360808601526137088282612f7b565b91505060a083015184820360a08601526137228282612f7b565b91505060c083015184820360c086015261373c8282612f7b565b91505060e083015161375160e0860182612fb4565b508091505092915050565b60006137688383613689565b905092915050565b6000602082019050919050565b60006137888261365d565b6137928185613668565b9350836020820285016137a485613679565b8060005b858110156137e057848403895281516137c1858261375c565b94506137cc83613770565b925060208a019950506001810190506137a8565b50829750879550505050505092915050565b6000602082019050818103600083015261380c818461377d565b905092915050565b60006020820190506138296000830184613143565b92915050565b7f4e487b7100000000000000000000000000000000000000000000000000000000600052602260045260246000fd5b6000600282049050600182168061387657607f821691505b6020821081036138895761388861382f565b5b50919050565b7f4f6e6c792070617469656e74732063616e206772616e74206163636573730000600082015250565b60006138c5601e83612e03565b91506138d08261388f565b602082019050919050565b600060208201905081810360008301526138f4816138b8565b9050919050565b7f43616e206f6e6c79206772616e742061636365737320746f20646f63746f7273600082015250565b6000613931602083612e03565b915061393c826138fb565b602082019050919050565b6000602082019050818103600083015261396081613924565b9050919050565b7f446f63746f72206e6f7420726567697374657265640000000000000000000000600082015250565b600061399d601583612e03565b91506139a882613967565b602082019050919050565b600060208201905081810360008301526139cc81613990565b9050919050565b7f4e487b7100000000000000000000000000000000000000000000000000000000600052603260045260246000fd5b7f50617469656e74206e6f74207265676973746572656400000000000000000000600082015250565b6000613a38601683612e03565b9150613a4382613a02565b602082019050919050565b60006020820190508181036000830152613a6781613a2b565b9050919050565b7f4f6e6c792070617469656e74732063616e207265766f6b652061636365737300600082015250565b6000613aa4601f83612e03565b9150613aaf82613a6e565b602082019050919050565b60006020820190508181036000830152613ad381613a97565b9050919050565b7f4f6e6c7920646f63746f72732063616e20646961676e6f736500000000000000600082015250565b6000613b10601983612e03565b9150613b1b82613ada565b602082019050919050565b60006020820190508181036000830152613b3f81613b03565b9050919050565b7f416363657373206e6f74206772616e7465642062792070617469656e74000000600082015250565b6000613b7c601d83612e03565b9150613b8782613b46565b602082019050919050565b60006020820190508181036000830152613bab81613b6f565b9050919050565b7f446961676e6f7369732064657461696c73207265717569726564000000000000600082015250565b6000613be8601a83612e03565b9150613bf382613bb2565b602082019050919050565b60006020820190508181036000830152613c1781613bdb565b9050919050565b7f54726561746d656e742072657175697265640000000000000000000000000000600082015250565b6000613c54601283612e03565b9150613c5f82613c1e565b602082019050919050565b60006020820190508181036000830152613c8381613c47565b9050919050565b7f4e487b7100000000000000000000000000000000000000000000000000000000600052604160045260246000fd5b60008190508160005260206000209050919050565b60006020601f8301049050919050565b600082821b905092915050565b600060088302613d1b7fffffffffffffffffffffffffffffffffffffffffffffffffffffffffffffffff82613cde565b613d258683613cde565b95508019841693508086168417925050509392505050565b6000819050919050565b6000613d62613d5d613d5884612e88565b613d3d565b612e88565b9050919050565b6000819050919050565b613d7c83613d47565b613d90613d8882613d69565b848454613ceb565b825550505050565b600090565b613da5613d98565b613db0818484613d73565b505050565b5b81811015613dd457613dc9600082613d9d565b600181019050613db6565b5050565b601f821115613e1957613dea81613cb9565b613df384613cce565b81016020851015613e02578190505b613e16613e0e85613cce565b830182613db5565b50505b505050565b600082821c905092915050565b6000613e3c60001984600802613e1e565b1980831691505092915050565b6000613e558383613e2b565b9150826002028217905092915050565b613e6e82612df8565b67ffffffffffffffff811115613e8757613e86613c8a565b5b613e91825461385e565b613e9c828285613dd8565b600060209050601f831160018114613ecf5760008415613ebd578287015190505b613ec78582613e49565b865550613f2f565b601f198416613edd86613cb9565b60005b82811015613f0557848901518255600182019150602085019450602081019050613ee0565b86831015613f225784890151613f1e601f891682613e2b565b8355505b6001600288020188555050505b505050505050565b7f416c726561647920726567697374657265640000000000000000000000000000600082015250565b6000613f6d601283612e03565b9150613f7882613f37565b602082019050919050565b60006020820190508181036000830152613f9c81613f60565b9050919050565b7f446f63746f7220616c7265616479207265676973746572656400000000000000600082015250565b6000613fd9601983612e03565b9150613fe482613fa3565b602082019050919050565b6000602082019050818103600083015261400881613fcc565b9050919050565b7f50617469656e7420616c72656164792072656769737465726564000000000000600082015250565b6000614045601a83612e03565b91506140508261400f565b602082019050919050565b6000602082019050818103600083015261407481614038565b9050919050565b7f4e487b7100000000000000000000000000000000000000000000000000000000600052601160045260246000fd5b60006140b582612e88565b91507fffffffffffffffffffffffffffffffffffffffffffffffffffffffffffffffff82036140e7576140e661407b565b5b600182019050919050565b7f4163636573732064656e69656400000000000000000000000000000000000000600082015250565b6000614128600d83612e03565b9150614133826140f2565b602082019050919050565b600060208201905081810360008301526141578161411b565b905091905056fea2646970667358221220f6b2ed661c82e6fda74c85d587c522fe552414424ff80cab703910979a22b71264736f6c634300081c0033",
  "linkReferences": {},
  "deployedLinkReferences": {}
}